:020000040800F2
:100000008035002045010008752A0008531A0008B1
:1000100093290008CF1000082144000800000000C8
:10002000000000000000000000000000673B000826
:1000300021140008000000004D380008DD3C0008D5
:100040005F0100085F0100085F0100085F01000810
:100050005F0100085F0100085F0100085F01000800
:100060005F0100085F0100085F0100085F010008F0
:100070005F0100085F0100085F0100085F010008E0
:100080005F0100085F0100085F0100085F010008D0
:100090005F0100085F0100085F0100085F010008C0
:1000A0005F0100085F0100085F0100085F010008B0
:1000B0005F0100085F0100089D3D00085F01000826
:1000C0005F0100085F0100085F0100085F01000890
:1000D0005F0100080D3F0008953F00085F01000820
:1000E0005F0100085F0100085F0100085F01000870
:1000F0005F0100085F0100085F0100085F01000860
:100100005F0100085F0100085F0100085F0100084F
:100110005F0100085F0100085F0100085F0100083F
:100120005F0100085F0100085F0100085F0100082F
:10013000DFF80CD000F01EFE0048004765520008B2
:10014000803500200648804706480047FEE7FEE766
:10015000FEE7FEE7FEE7FEE7FEE7FEE7FEE7FEE777
:10016000113D000831010008A0F14101192900D812
:100170002030704740EA01039B0703D009E008C91B
:10018000121F08C0042AFAD203E011F8013B00F85C
:10019000013B521EF9D27047D2B201E000F8012BA8
:1001A000491EFBD270470022F6E710B513460A46F7
:1001B00004461946FFF7F0FF204610BD421E12F814
:1001C000013F002BFBD111F8013B02F8013B002B52
:1001D000F9D1704730B505462A460B4612F8010B97
:1001E00013F8014B08B1A042F8D01CB1002802D08E
:1001F0006D1CF1E7284630BDCAB2401E10F8011F41
:100200008A4202D00029F9D100207047421C10F820
:10021000011B0029FBD1801A704710B5002200E0B5
:10022000521C835C8C5CA34201D1002BF8D1D8B264
:10023000E1B2401A10BD10B5044600E0401C03783E
:10024000002BFBD100E0401C521E04D311F8013BEF
:100250000370002BF7D100210170204610BD03462A
:1002600011F8012B00F8012B002AF9D1184670472C
:1002700030B505460020034600E05B1C934205D2E2
:10028000EC5CC85C201A01D1002CF6D130BD000016
:100290002DE9FF4F087883B09946FF2805D0491C07
:1002A0002D2804D00024002008E000200BE00124C9
:1002B000F9E700EB800003EB4000491C0B78FF2BB3
:1002C000F7D104B1404200230293147819461D4629
:1002D0002D2C01D02B2C04D1521C2D2C13D00024FA
:1002E0000294AA461478FF2C0FD00A25A3FB0578A8
:1002F00001FB05814FF0000C03FB0C11521CE319AC
:100300004AEB0101EEE70124EAE7814453EA0100E8
:1003100002D019F5C87F06DA03980021C0E9001160
:1003200007B0BDE8F08F0025AE4E2F46DFF8B8824B
:10033000184600F0FAFCCDE90001B9F1000002DA3C
:10034000C9F1000400E004460023A74A1AEB030B9E
:1003500042EB045A12E0E00707D02A4633463846FB
:10036000414600F0ECF9074688462A4633461046D7
:10037000194600F0E4F905460E466410002CEAD157
:10038000DDE90001B9F1000F5A46534606DA00F0E4
:100390005DFC3A46434600F059FC05E000F0CFF919
:1003A0003A46434600F0CBF9029A0AB181F0004187
:1003B000039AC2E90001B3E72DE9FF4F1F468DB054
:1003C000D7E901464FF0FF382E2045464FF000098F
:1003D0000B90B9696D1C0E988847396A8246884728
:1003E0000028F6D1BAF1FF3F0AD024F4D064002EE1
:1003F00011DDBAF12B0F08D0BAF12D0F0BD102E0AD
:10040000404611B08DE744F48064B9696D1C0E98C4
:1004100088478246761E6946600501D52D2000E09A
:100420002B208DF8000001F1010B0DF1200809E0EF
:10043000B9696D1C0E98884782460F9844F4007481
:10044000761E0560002E02DDBAF1300FF0D00B9958
:100450008A453ED144F0800406E00F99681CA9F15A
:10046000010944F400740860B9696D1C761E0E9889
:10047000884782463028F0D02BE00B998A4505D179
:10048000200603D444F08004761E18E0504604F0A1
:1004900065F908B30DF11301761E44F400748B4521
:1004A00008D2AAF130000BF8010B200607D5A9F1FC
:1004B000010003E0200602D409F101008146A005F5
:1004C00002D50F99681C0860B9696D1C0E988847A1
:1004D0008246002ED1DC53E0002E51DDBAF1650FCB
:1004E00002D0BAF1450F4BD1A00549D5B9696D1CB1
:1004F00024F44074761E0E9888478246002E0CDD48
:100500002B2804D0BAF12D0F07D144F48074B969B7
:100510006D1C0E9888478246761EE00501D52D2178
:1005200000E02B2108F8011BCDF82C8021E00DF113
:100530002901761E44F4007488450CD2AAF13000DB
:1005400010F0FF0088F8000002D10B99884509D906
:1005500008F1010806E0E00501D5244801E042F277
:100560000F708146B9696D1C0E98884782460F98B6
:100570000560002E04DD504604F0F0F80028D6D1C6
:10058000F9690E988847FF208BF8000088F8000072
:100590000020069007904B466A4608A906A8FFF778
:1005A00077FEA00502D46FF001002AE714F0240FB3
:1005B0000AD0E00714D1DDE906123868031D3B605C
:1005C0000068C0E900120BE0DDE9060100F09EF9C9
:1005D0000146E00704D13868021D3A6000680160F6
:1005E00028460EE7000014400000F03FF1D8FFFF5E
:1005F0002DE9FE4F804681EA0300C00F0C460090B3
:1006000021F0004123F00045B8EB0200A94105D2DA
:100610004046214690461C460B46024623F00040C9
:10062000104347D0270DC7F30A00C3F30A510290C5
:10063000401A019040286BDAC3F3130040F4801B8A
:100640000098924620B10023D2EB030A63EB0B0B18
:1006500001985946C0F14002504600F0C4F90646E0
:100660000D4650465946019A00F0DCF910EB08009F
:100670006141002487EA115284EAE7731A4340D0AB
:10068000009A62B3019A012A4FEA075215DC001B57
:1006900061EB02014FF0004202EA0752CDE900424D
:1006A000001C41F5801132462B4600F081FA03B060
:1006B000BDE8F08F40462146F9E7001B61EB0201DF
:1006C000001C41F5801300185B412018A2F50017AB
:1006D00047EB030140EAD570B6196D4111E06D0892
:1006E0004FEA360645EAC0754FEA0752001B61EB38
:1006F0000201001C41F5801149084FEA3000001941
:10070000514132462B4603B0BDE8F04F00F041BAEC
:100710000098012240000023D0EB020263EBE0735B
:10072000009821464FEAE074B8EB000061EB040149
:10073000E9E783F000435BE781F0004158E72DE9EA
:10074000FE4F81EA030404F0004421F000410094CC
:100750004FF0000B23F0004350EA01045ED052EA50
:1007600003045BD0C3F30A54C1F30A552C44A4F22A
:10077000F3340194A0FB0254C1F3130141F480113E
:10078000C3F3130343F4801301FB024400FB034E45
:10079000840A970A44EA815447EA8357A4FB07680E
:1007A00002958D0A05FB07854FEA932C04FB0C5438
:1007B0002705029D4FEA065847EA1637B5EB0805AC
:1007C0006EEB070C870E920E47EA811742EA8312FE
:1007D000A7FB0201B6EB0B0164EB00042B0D43EA0F
:1007E0000C335E1844EB1C50DA465146E7FB02011D
:1007F000C5F313044FEA0B3343EA14534FEA0432B0
:10080000019C43EA0603A4F10C040294009CCDE988
:1008100000B400F0CDF903B0BDE8F08F0020014630
:10082000F9E796230022114600F085B90EB540F293
:10083000334102910021CDE900110A460B4600F038
:10084000B7F903B000BD70B5C1F30A5201F000451D
:100850000024C1F3130140F2FF3341F480119A42A6
:1008600001DA002070BD40F233439A42A2F23342D3
:1008700003DC524200F0C6F800E090402C43F1D077
:10088000404270BD00F0004230F000400AD0C10D7F
:1008900001F56071C0F3160042EA0151C208400739
:1008A00011437047002001467047000030B5041E18
:1008B00071F1000404DB4FF00044404264EB01019D
:1008C000141E73F1000405DB1C464FF00043524236
:1008D00063EB04038B4208BF824230BD30B5041E77
:1008E00071F1000404DB4FF00044404264EB01016D
:1008F000141E73F1000405DB1C464FF00043524206
:1009000063EB0403994208BF904230BD01F00043FD
:1009100030B421F0004150EA010206D00A0DA2F5E0
:100920006072C1F31301002A02DC30BC0020704762
:10093000440F44EAC104C100E01830BC00EBC250CF
:1009400000F0F0B8002801DBC0F10040002901DB15
:10095000C1F100418142704730B50B46014600208D
:100960002022012409E021FA02F59D4205D303FA71
:1009700002F5491B04FA02F52844151EA2F10102F2
:10098000F1DC30BD2DE9F05F0546002092469B4624
:1009900088460646814640241BE028464146474695
:1009A000224600F02FF853465A46C01A914110D300
:1009B00011461846224600F016F82D1A67EB01087A
:1009C0004F4622460120002100F00DF817EB0009E8
:1009D0004E41201EA4F10104DFDC484631462A4680
:1009E0004346BDE8F09F202A04DB203A00FA02F1DA
:1009F000002070479140C2F1200320FA03F319430D
:100A000090407047202A04DB203A21FA02F00021AE
:100A1000704721FA02F3D040C2F12002914008430E
:100A200019467047202A06DBCB17203A41FA02F01C
:100A300043EAE07306E041FA02F3D040C2F120023B
:100A40009140084319467047426842B1016811F865
:100A5000013B23B1521EC0E9001218467047012124
:100A6000C160881E704742685AB1C368016843B9C3
:100A700083688B4205D0491E521CC0E90012002039
:100A800070474FF0FF3070470FB4002300B589B0B6
:100A90000CA900910B996FF00042CB601E4B06939E
:100AA0001E4B07930423CDE901321D4A08920246EA
:100AB0006B460020FFF780FC09B05DF814FB70B5B1
:100AC00086B006464FF0FF300091CDE901010020CD
:100AD00015460C4604903246694604A8FFF7D4FF39
:100AE00002460498211825B108B1084600E02046C6
:100AF0002860049800280DD0002A02DD0098884262
:100B000008D0081B0094CDE901043246694604A8C8
:100B1000FFF7BAFF06B070BD490A0008670A00086F
:100B2000990D00080029A8BF7047401C490008BF64
:100B300020F00100704710B4B0FA80FC00FA0CF00D
:100B400050EA010404BF10BC704749B1CCF1200445
:100B500021FA04F411FA0CF118BF012121430843D2
:100B6000A3EB0C01CB1D4FEA00614FEA102042BFFE
:100B7000002010BC704700EBC35010440029A4BFF4
:100B800010BC7047401C490008BF20F0010010BC99
:100B9000704710B5141E73F1000408DA401C41F1CF
:100BA000000192185B411A4301D120F0010010BDF1
:100BB0002DE9F04D92469B4611B1B1FA81F202E067
:100BC000B0FA80F220329046FFF70DFF04460F4640
:100BD00040EA0A0041EA0B0153465A46084313D043
:100BE000114653EA010019D0C8F140025046FFF700
:100BF00009FF05460E46504659464246FFF7F3FEAA
:100C0000084305D0012004E020463946BDE8F08DB8
:100C10000020054346EAE0762C4337430A986305F3
:100C2000E40AA0EB08000022FD0A44EA47540A3017
:100C300002D500200146E9E7010510196941DDE907
:100C4000084500196941BDE8F04DA2E72DE9F04DD6
:100C500081EA030404F0004B21F0004514464FF0F4
:100C6000000A23F0004150EA050220D054EA0102B4
:100C70001DD0C5F30A570246C5F31303C1F3130091
:100C8000C1F30A5640F4801543F48013A7EB06081D
:100C9000101BD64608F2FD3873EB050002D308F1AD
:100CA000010801E092185B41B8F1000F03DA00205F
:100CB0000146BDE8F08D00204FF4801106468446C1
:100CC0000EE0171B73EB050705D3121B63EB05033F
:100CD00006434CEA010C49084FEA300092185B4188
:100CE00050EA0107EDD152EA030012D082EA040073
:100CF00083EA0501084305D0101BAB4106D201224F
:100D0000002306E000224FF0004302E06FF00102F2
:100D100053101AEB06004CEB085110EB0A0041EBA4
:100D20000B01BDE8F04DFFF734BF0EB540F2334282
:100D300002920022CDE900221346FFF739FF03B0EB
:100D400000BDC1F30A52C1F3130140F2FF3341F475
:100D500080119A4202DA00200146704740F2334384
:100D60009A42A2F2334202DC5242FFF74BBEFFF737
:100D70003ABE0000064C074D06E0E06840F0010373
:100D800094E8070098471034AC42F6D3FFF7D4F943
:100D9000C05E0008E05E0008C0B24FF4F05100F001
:100DA00001B800007F2801D9002208E0064A02EBC2
:100DB0005002C007127800D1120902F00F02012080
:100DC0009040084070470000605E000870B58C18C5
:100DD00010F8015B15F0070301D110F8013B2A114F
:100DE00006D110F8012B03E010F8016B01F8016B3C
:100DF0005B1EF9D12B0705D40023521E0DD401F838
:100E0000013BFAE710F8013BCB1A921C03E013F800
:100E1000015B01F8015B521EF9D5A142D8D3002035
:100E200070BD21B1826842F00102826003E08268F5
:100E300022F001028260704721B1826842F4807220
:100E4000826003E0826822F480728260704701460B
:100E500000208A6802F004020AB1012000E00020AC
:100E60007047014600208A6802F008020AB101209A
:100E700000E000207047000030B50246002000234B
:100E800050680F4C20400D790C6844EA052420433B
:100E9000506090680B4C2040D1E902542C434D79AE
:100EA00044EA450420439060D06A20F470000C7C32
:100EB000641EE4B2234340EA0350D06230BD000018
:100EC000FFFEF0FFFDF7F1FFF0B504460D460020F0
:100ED0000021092D11DDE068A5F10A0606EB4607A1
:100EE000072606FA07F18843A5F10A0606EB46062F
:100EF00003FA06F10843E0600CE0206905EB4507C2
:100F0000072606FA07F1884305EB450603FA06F1C2
:100F100008432061072A0FDA606B561E06EB86072E
:100F20001F2606FA07F18843561E06EB860605FAC9
:100F300006F10843606322E00D2A0FDA206BD61F0A
:100F400006EB86071F2606FA07F18843D61F06EB35
:100F5000860605FA06F10843206310E0E06AA2F174
:100F60000D0606EB86071F2606FA07F18843A2F155
:100F70000D0606EB860605FA06F10843E062F0BDB1
:100F8000816841F008018160704721B1826842F4B4
:100F9000A002826003E0826822F4A00282607047AF
:100FA000816841F0040181607047000008B50121AB
:100FB000042002F079FC0220ADF8000000208DF83A
:100FC00003006946014800F064FC08BD00080140C8
:100FD00010B5FFF7EBFF00F001F810BD00B591B0C0
:100FE0000121084602F040FC0121480202F05CFCAD
:100FF000334800F051F933480690334807900020F9
:1010000008900120099000200A9080200B90400059
:101010000C9080000D9020200E9000020F90002078
:10102000109006A9264800F0DDF90121244800F0BF
:1010300027F90020019001208DF808008DF80900A3
:101040004FF4602003900020049001208DF81400DC
:1010500001A91C484C38FFF70FFF4FF4404002F045
:10106000F7FB05230122114616484C38FFF72CFFE9
:10107000012114484C38FFF7DFFE012111484C389C
:10108000FFF7CFFE0F484C38FFF77AFF00BF0D483F
:101090004C38FFF7E6FE0028F9D10A484C38FFF734
:1010A0007FFF00BF07484C38FFF7D1FE0028F9D179
:1010B000012104484C38FFF768FF11B000BD000063
:1010C000080002404C240140900A0020704700BFF5
:1010D000FEE7000010B5012000F000FD04463CB121
:1010E0003448007820B93448047001203149087030
:1010F00064B130480078012808DB2E4800781E28AB
:1011000004DC2C480078401C2A490870002C30D19F
:101110002848007800282CDD264800781E2828DA88
:1011200025480078012804D0022814D003281AD1B9
:1011300015E022A003F0C6F92348007C28B901205D
:10114000214908742149086004E000201E49087400
:101150001E49086008E01EA003F0B4F904E01FA0D7
:1011600003F0B0F900E000BF00BF00201149087093
:101170001EE0ECB90F4800781E2819DB0E480078F5
:10118000012804D0022806D003280CD107E016A0BD
:1011900003F098F908E017A003F094F904E018A010
:1011A00003F090F900E000BF00BF00200149087083
:1011B00010BD0000E50A0020E60A00204B657931E9
:1011C0005F53686F72740A00642500208C8121428D
:1011D0004B6579325F53686F72740A004B657933DF
:1011E0005F53686F72740A004B6579315F4C6F6EA4
:1011F000670A00004B6579325F4C6F6E670A00002A
:101200004B6579335F4C6F6E670A000008B50121AA
:10121000082002F049FB2020ADF8000010208DF8D6
:10122000030003208DF802006946044800F031FBFA
:101230002021024800F00BFC08BD0000000C01401A
:1012400008B52020ADF8000048208DF8030069465D
:10125000014800F01EFB08BD000C014008B520202D
:10126000ADF8000010208DF8030003208DF8020077
:101270006946024800F00DFB08BD0000000C01406B
:1012800021B1026842F00102026004E002684FF6F8
:10129000FE731A400260704701684FF6FE721140FB
:1012A00001600021016041608160C1604B4988425A
:1012B00008D14A490839496841F00F01474A083ABC
:1012C00051608AE045491431884208D143490839C0
:1012D000496841F0F001414A083A51607DE03F49D8
:1012E0002831884208D13D490839496841F4706184
:1012F0003A4A083A516070E038493C31884208D196
:1013000036490839496841F47041344A083A516015
:1013100063E032495031884208D130490839496880
:1013200041F470212D4A083A516056E02B4964314E
:10133000884208D129490839496841F47001274A8F
:10134000083A516049E025497831884208D123495B
:101350000839496841F07061204A083A51603CE020
:101360001F49884206D1011F096841F00F01021F81
:10137000116032E01A491431884208D11849091F16
:10138000096841F0F001164A121F116025E0144966
:101390002831884208D11249091F096841F4706157
:1013A0000F4A121F116018E00D493C31884208D1E4
:1013B0000B49091F096841F47041094A121F116065
:1013C0000BE007495031884207D10549091F0968D8
:1013D00041F47021024A121F116070470800024058
:1013E0000804024010B50022026847F6F0739A43E1
:1013F0000C6A8B6823430C6923434C6923438C6933
:101400002343CC6923434C6A23438C6A23431A4306
:101410000260CB6843600B6883604B68C36010BD9B
:101420007047000010B54FF480710348FEF7BBFE13
:1014300000200249088010BD641C0020B20A002070
:1014400070B50546002400BF00F048F980B90DA131
:101450000E48FEF7BFFE044654B13A212046FEF77F
:10146000CBFE044614B1641C204670BD0020FCE78E
:10147000052003F049FE281EA5F101018DB2E3D13C
:1014800000BFF2E74950442C00000000641C00201B
:1014900000B5A1B0FA2003F037FEFFF7C3FF32A07A
:1014A00003F010F803E04FF4967003F02DFEC8220D
:1014B0002FA130A000F0C8F80028F4D12FA003F02D
:1014C00001F803E04FF4967003F01EFEC82228A135
:1014D0002DA000F0B9F80028F4D12FA002F0F2FFFF
:1014E00003E04FF4967003F00FFEC82220A12DA058
:1014F00000F0AAF80028F4D12EA002F0E3FF80212A
:1015000001A8FEF750FE2DA32FA232A101A802F0E0
:10151000E9FF03E04FF4967003F0F6FDC82233A113
:1015200001A800F091F80028F4D132A002F0CAFF1F
:10153000802101A8FEF737FE41F2727330A234A178
:1015400001A802F0CFFF03E04FF4FA7003F0DCFDD6
:10155000C82236A101A800F077F80028F4D135A000
:1015600002F0B0FF21B000BD41540D0A00000000A0
:101570004F4B000041540D0A0D00000043574D4FE2
:1015800044450D0A0000000041542B43574D4F4481
:10159000453D310D0A00000041542B435744484358
:1015A000500D0A0041542B4357444843503D312CC1
:1015B000310D0A0043574A41500D0A007036373545
:1015C0006570683900000000434D43432D4B505572
:1015D0004400000041542B43574A41503D2225739B
:1015E000222C222573220D0A00000000474F5420B0
:1015F0004950000043495053544152540D0A0000D1
:101600003138332E3233302E34302E33390000004F
:1016100041542B43495053544152543D225443505A
:10162000222C222573222C25640D0A00434F4E4E96
:10163000454354004553503832363620496E69745C
:10164000204F4B0D0A0000002DE9F04105460E46E3
:1016500014462846FEF7DAFD87B23946284602F0DE
:1016600013FD0FE000F03AF848B931460948FEF79B
:10167000B1FD20B1FFF7D6FE0020BDE8F0810A20C1
:1016800003F042FD201EA4F101018CB2EAD1012039
:10169000F3E70000641C002030B589B005460C4615
:1016A000FFF7C0FE224608A101A802F01BFFC822D6
:1016B00009A101A8FFF7C8FF18B92146284602F082
:1016C000E3FC09B030BD000041542B434950534561
:1016D0004E443D25640D0A003E0000000A48008883
:1016E00008B90120704708480088084909888842DD
:1016F00003D1002004490880F4E703480088034927
:1017000008800120EEE70000B20A0020B40A0020A1
:10171000044900E0521C11F8013B002BFAD150089B
:1017200070470000EC09002010B50446062C22D2B8
:10173000DFE804F003080D12171C0121084602F02F
:10174000A3F818E00121022002F09EF813E0012125
:10175000042002F099F80EE00121082002F094F82C
:1017600009E00121102002F08FF804E0012120207F
:1017700002F08AF800BF00BF10BD70B504460D46E8
:1017800016462046FFF7D0FF32462946204600F095
:101790005AF8204600F001F870BD3EB504462046D8
:1017A00002F0AAFB0546062C33D2DFE804F0030B57
:1017B000131B232A4FF47A70ADF804004820ADF8CB
:1017C000000026E040F2E730ADF804004720ADF815
:1017D00000001EE04FF47A70ADF804004820ADF828
:1017E000000016E040F2E630ADF804004620ADF807
:1017F00000000EE05920ADF804004F20ADF80000C5
:1018000007E040F2E730ADF804004720ADF80000F3
:1018100000BF00BF0020ADF80600ADF802008DF853
:1018200008006946284602F015FB0121284602F00F
:10183000E5FA01221146284602F003FB0021284662
:1018400002F0E2FA3EBDF8B506460C4615464FF4E6
:10185000A06001F049F926B1012E06D0022E0CD16C
:1018600007E01C208DF8000007E01D208DF8000027
:1018700003E01E208DF8000000BF00BF8DF801407E
:101880008DF8025001208DF80300684601F0F4F84D
:10189000F8BD2DE9F0410246002500260020002376
:1018A0000024002791F803C00CF00F0591F803C045
:1018B0000CF0100CBCF1000F03D091F802C04CEA00
:1018C000050591F800C0BCF1000F31D0146800206C
:1018D0002BE04FF0010C0CFA00F3B1F800C00CEA59
:1018E00003069E4220D183004FF00F0C0CFA03F741
:1018F000BC4305FA03FC4CEA040491F803C0BCF1B4
:10190000280F06D14FF0010C0CFA00FCC2F814C0ED
:101910000AE091F803C0BCF1480F05D14FF0010C6B
:101920000CFA00FCC2F810C0401C0828D1D3146087
:10193000B1F800C0BCF1FF0F34DD546800202EE088
:1019400000F1080C4FF0010808FA0CF3B1F800C0E0
:101950000CEA03069E4221D183004FF00F0C0CFAD3
:1019600003F7BC4305FA03FC4CEA040491F803C0F6
:10197000BCF1280F05D100F1080C08FA0CF8C2F8E8
:10198000148091F803C0BCF1480F07D100F1080C96
:101990004FF0010808FA0CF8C2F81080401C082823
:1019A000CED35460BDE8F081F0B50A460023002490
:1019B0000021002500F00046B6F1004F02D11D4E77
:1019C000F16901E01B4E7168C0F3034583B200F476
:1019D0004016B6F5401F08D121F07061154E7668AB
:1019E00026F07066134F7E6012E000F48016B6F5A4
:1019F000801F06D1032606FA05F4A14341F0706169
:101A000006E0460D360103FA06F6B14341F0706177
:101A100022B1460D360103FA06F6314300F00046C6
:101A2000B6F1004F02D1034EF16101E0014E716049
:101A3000F0BD0000000001400246002093680B400A
:101A40000BB1012000E00020704741617047016147
:101A5000704700BFFEE7000010B54FF4A06001F032
:101A600043F8FFF755FE1A49086003F02BFB0122EB
:101A700000210220FFF781FE4FF4E13002F0D2FC9A
:101A80004FF4E13002F0ACFA02F072F900F05EF8C7
:101A900000F04AF800F07EF8FFF79AFAFFF7B6FB7D
:101AA00001F07CFF01F0F2F8002001F0AAF800201C
:101AB00001F0B5F802E0052003F026FB05490648D1
:101AC00002F048F80128F6D101F096F810BD0000A8
:101AD0008C0A0020D80A0020D00A002010B5044645
:101AE00014B101200E4908700D48007870B18021B2
:101AF0000C48FFF7A1FF48B9002009490870802170
:101B00000848FFF799FF48B9012010BD802105481A
:101B1000FFF792FF012801D1014908700020F4E786
:101B200018000020000C014008B50121082001F038
:101B3000BBFE8020ADF8000048208DF80300694608
:101B40000148FFF7A6FE08BD000C014008B50121C1
:101B5000142001F0A9FE4FF40050ADF80000102051
:101B60008DF8030003208DF8020069460648FFF750
:101B700090FE0220ADF8000069460448FFF789FE98
:101B800000200349086008BD001001400008014022
:101B9000B401224208B50121042001F085FE102085
:101BA000ADF8000048208DF8030069460148FFF7B2
:101BB00070FE08BD0008014010B50446207B0128D6
:101BC00002D1206802F0A2FC002020606060A060CA
:101BD000207310BD0246002301230DE002F07F00B8
:101BE0000870D2092AB1087840F080000870491CBA
:101BF00001E0184670475B1C042BEFDD4FF0FF300F
:101C0000F8E7000070B5C0B004464FF48071684634
:101C1000FEF7C9FA53A0008820804FF4807168460F
:101C2000FEF7C1FA5048028850A1684602F05AFCFB
:101C300069462046FEF7C2FA4FF480716846FEF707
:101C4000B2FA494842884DA1684602F04BFC694609
:101C50002046FEF7B3FA4FF480716846FEF7A3FA08
:101C60004148828849A1684602F03CFC694620460A
:101C7000FEF7A4FA4FF480716846FEF794FA4748DD
:101C8000028B47A1684602F02DFC69462046FEF70C
:101C900095FA4FF480716846FEF785FA3F498868E7
:101CA000FEF7F0FD05462A460B4641A1684602F0C4
:101CB00019FC69462046FEF781FA4FF480716846A8
:101CC000FEF771FA3549C868FEF7DCFD05462A467D
:101CD0000B463BA1684602F005FC69462046FEF72C
:101CE0006DFA4FF480716846FEF75DFA2B48027C6E
:101CF00037A1684602F0F6FB69462046FEF75EFA19
:101D00004FF480716846FEF74EFA2448427C34A1B5
:101D1000684602F0E7FB69462046FEF74FFA4FF4AB
:101D200080716846FEF73FFA3148026831A1684683
:101D300002F0D8FB69462046FEF740FA4FF4807166
:101D40006846FEF730FA2EA1684602F0CBFB6946E2
:101D50002046FEF733FA2046FEF758FAC0B240B0EC
:101D600070BD00007B000000D00A002022736F6D60
:101D7000675F76223A222564222C00002268756D66
:101D8000695F76223A222564222C00002274656D58
:101D9000705F76223A222564222C00006425002000
:101DA00022736F6D67223A222564222C0000000006
:101DB0002274656D70223A22252E3166222C000095
:101DC0002268756D69223A22252E3166222C000088
:101DD00022666C616765223A222564222C0000008D
:101DE0002266697265223A222564222C00000000D6
:101DF0000C8121422262656570223A22256422000C
:101E00007D00000070B504460E460025206898B994
:101E100001202073304602F0A7FB20602068E0B16B
:101E200000206060A66003E00020216848556D1C1A
:101E3000A068A842F8D810E00220207303E0002038
:101E4000216848556D1CA068A842F8D80020606041
:101E5000A068B04201D20020206070BD2DE9FF5F74
:101E600007460D4690463846FEF7D0F986B228461A
:101E7000FEF7CCF91FFA80FA4FF00009B01D02F00E
:101E800073FB04461CB9012004B0BDE8F09FB11DEE
:101E90002046FEF788F912A0016821608088A080A2
:101EA000324639462046FEF7C6F92846FEF7AEF917
:101EB00083460120002100915B462A46CDE90208B5
:101EC000019121460A2000F05FF910B94FF0000996
:101ED00001E04FF00109204602F018FB4846D3E725
:101EE00024637273702F00002DE9FF4F83B0824688
:101EF0008B469146159C0025002002900F270190EB
:101F00004846FEF783F90FFA80F8B9F1000F03D1C4
:101F1000012007B0BDE8F08F08F10200384487B215
:101F2000109808B145F00205129878B145F0040503
:101F30001298FEF76BF9C0B202901398FEF766F99B
:101F400001460298001D0844384487B2119820B118
:101F5000012804D0022808D104E000BF07E045F0C2
:101F60000C0504E045F0140501E00220D1E700BFB4
:101F7000149808B145F02405BAF1000F02D0BBF166
:101F8000000F01D10320C4E745F0C0055046FEF71D
:101F90003DF906465846FEF739F93044001D3844ED
:101FA00087B239462046FFF72DFF206808B9042084
:101FB000AFE739462068FEF7F6F810216268501C3A
:101FC000606020688154D4E90023D118781FFFF79E
:101FD00001FE00B201900198002804DA2046FFF7C4
:101FE000EBFD052095E761680198084460600021D9
:101FF0006268501C60602068815404216268501C33
:102000006060206881544D216268501C60602068C7
:10201000815451216268501C6060206881545421B1
:102020006268501C6060206881546268501C606067
:102030002068815404216268501C606020688154CB
:102040006168481C6060206845540698010A62680F
:10205000501C6060206881540698C1B26268501CB0
:10206000606020688154C8F307216268501C60607A
:10207000206881546268501C6060206800F802800B
:10208000D4E90012881842464946FEF7D4F8606841
:102090004044606005F00400B8B30026139808B906
:1020A00038A013901298FEF7B1F886B2310A626830
:1020B000501C6060206881546268501C6060206819
:1020C0008654D4E90012881832461299FEF7B3F804
:1020D0006068304460601398FEF798F886B2310A61
:1020E0006268501C6060206881546268501C6060A7
:1020F00020688654D4E90012881832461399FEF7F6
:102100009AF860683044606000BF05F08000C8B194
:102110005046FEF77BF886B2310A6268501C606058
:10212000206881546268501C606020688654D4E93D
:102130000012881832465146FEF77DF86068304438
:10214000606000BF05F04000C8B15846FEF75EF879
:1021500086B2310A6268501C6060206881546268EF
:10216000501C606020688654D4E9001288183246FA
:102170005946FEF760F860683044606000BF002098
:10218000C7E60000000000002DE9FF4F83B0834642
:1021900090469946139C002600250020029001904D
:1021A0000027BBF1000F03D1012007B0BDE8F08F7D
:1021B00000250AE00498405D232803D00498405D80
:1021C0002B2801D10220F0E76D1C0498405D002807
:1021D000F0D147F03007119808B147F0010705EB3F
:1021E0000900861C109820B1012804D002280AD1C9
:1021F00005E000BF09E047F00207B61C05E047F024
:102200000407B61C01E00320CFE700BF98F80000E8
:10221000022822D14FF0000A00BF50460AF1010AFD
:1022200018F800007D28F8D1AAF1030A0AF1070086
:1022300002900298A9EB000AF01CA0EB0A012046CC
:10224000FFF7E0FD206808B90420AEE7F21CA2EB1E
:102250000A012068FDF7A7FF0BE0F11C2046FFF7FD
:10226000D1FD206808B904209FE7F11C2068FDF724
:102270009AFF6168481C606020684754D4E90002F6
:1022800081183046FFF7A6FC01900198002804DA77
:102290002046FFF791FC052087E761680198084414
:1022A0006060C5F307216268501C6060206881543B
:1022B0006268501C606020688554D4E90012881858
:1022C0002A460499FDF7B7FF6068284460601098BB
:1022D00060B14FEA1B216268501C60602068815425
:1022E0006268501C6060206800F802B0B8F1000F0E
:1022F00019D098F8000002280BD1D4E900128818F0
:102300004146029AFDF736FF616802980844606012
:1023100009E0D4E9001288184A464146FDF72AFF31
:1023200060684844606000203FE770B505460C4691
:1023300004212046FFF766FD206808B9012070BD22
:1023400040216268501C60602068815402216268EC
:10235000501C60602068815429126268501C6060C3
:10236000206881546268501C606020688554002099
:10237000E5E770B505460C4604212046FFF742FD0F
:10238000206808B9012070BD70216268501C60602F
:102390002068815402216268501C6060206881546A
:1023A00029126268501C6060206881546268501C69
:1023B0006060206885540020E5E770B505460C464E
:1023C00004212046FFF71EFD206808B9012070BDDA
:1023D00050216268501C606020688154022162684C
:1023E000501C60602068815429126268501C606033
:1023F000206881546268501C606020688554002009
:10240000E5E770B505460C4604212046FFF7FAFCC7
:10241000206808B9012070BD62216268501C6060AC
:102420002068815402216268501C606020688154D9
:1024300029126268501C6060206881546268501CD8
:102440006060206885540020E5E700002DE9FF4129
:1024500007460D4690461E460A9C01200021CDE904
:102460000001EB1C0A460FA1CDE902040A20FFF788
:102470008BFE88B96168481C606020684654C5F3CB
:1024800007216268501C6060206881546268501C9B
:1024900060602068855403E0012004B0BDE8F0814D
:1024A0000020FAE7246470002DE9FF5F804617469C
:1024B00099460E9C0026B246B3460025B8F1000F9F
:1024C00003D1012004B0BDE8F09F0BE057F82500D0
:1024D00008B90220F6E757F82500FDF797FE0644F5
:1024E000681CC5B24D45F1DB09EB4900801C00EBCF
:1024F000060A0AF105012046FFF784FC206808B9A6
:102500000320DFE782216268501C606020688154EC
:10251000D4E9000281185046FFF75CFB0FFA80FBFC
:10252000BBF1000F04DA2046FFF746FB0420C9E7A1
:102530006068584460604FEA18216268501C60600F
:10254000206881546268501C6060206800F8028036
:10255000002524E057F82500FDF758FE0646C6F38F
:1025600007216268501C6060206881546268501CBA
:10257000606020688654D4E90023D01857F82510ED
:102580003246FDF758FE6068304460600198C1B281
:102590006268501C606020688154681CC5B24D455B
:1025A000D8DB00208EE7F0B504460D462646012311
:1025B00000201060002114E0775C07F07F071068AE
:1025C00007FB03001060705C00F0800008B9481C35
:1025D000F0BDDB01B3F5001F02D36FF00100F7E798
:1025E000491CA942E8DB4FF0FF30F1E72DE9F84341
:1025F00080460C4615461E462F2108F10600FDF7C1
:10260000FBFD07460020009017B90120BDE8F883C4
:102610007F1C6A46042108F10100FFF7C4FF252052
:1026200001F0A2FF2060206808B90220EEE7252112
:102630002068FDF7B8FD242239462068FDF79AFD91
:10264000243700982C3830803188481C01F08CFFEA
:102650002860286820B9206801F058FF0320D5E7DA
:102660003288511C2868FDF79EFD3288394628685B
:10267000FDF780FD0020C9E701464878022801D017
:1026800001207047887810B18878012801D1C87876
:10269000F7E7FF20F5E700002DE9FC5F81460D46D6
:1026A00014461E46DDE90C8B99F8000000F00F0A75
:1026B000002001900AF008000090CAF341008BF856
:1026C000000001AA042109F10100FFF76CFF484452
:1026D000471C0198022802D30AF0010010B1FF2024
:1026E000BDE8FC9F7878397840EA01202080208876
:1026F000801C0199884201D9FF20F1E754A1B81C40
:10270000FDF768FD08B10F20EAE79BF8000020B153
:1027100001283DD0022877D13BE0009808B1FF2086
:10272000DEE72188481C01F01FFF2860286808B9EF
:10273000FF20D5E72288511C2868FDF734FD228848
:10274000B91C2868FDF716FD0198801E2188401AE3
:10275000A8F80000B8F80010481C01F005FF306030
:10276000306820B9286801F0D1FEFF20B8E7B8F83A
:102770000020511C3068FDF716FDB8F80020B4F8B1
:1027800000C0BB1C0CEB03013068FDF7F3FC4FE00D
:1027900000BF2088801C0199884201D9FF209FE753
:1027A0002088C01C395C2088801C385C41EA0021EC
:1027B0000E9801800E9808B9FF2091E72188481CE7
:1027C00001F0D2FE2860286808B9FF2088E7228837
:1027D000511C2868FDF7E7FC2288B91C2868FDF722
:1027E000C9FC0198001F2188401AA8F80000B8F819
:1027F0000010481C01F0B8FE3060306828B9286825
:1028000001F084FEFF206BE710E0B8F80020511CB7
:102810003068FDF7C8FCB8F80020B4F800C03B1DD4
:102820000CEB03013068FDF7A5FC01E0FF2057E742
:1028300000BF2B212846FDF7DFFC20B923212846C5
:10284000FDF7DAFC08B1FF204AE7002048E7000066
:10285000246372657100000001464878022801D0A7
:1028600001207047887820B9C8780A2801D1002053
:10287000F7E70120F5E701464878022801D001205A
:102880007047887820B9C8780A2801D10020F7E776
:102890000120F5E701464878022801D00120704761
:1028A000887820B9C8780A2801D10020F7E70120EC
:1028B000F5E702465078022801D001207047907851
:1028C000B0EB112F05D1D078CBB2984201D10020C6
:1028D000F4E70120F2E70000F8B50446FF2720786E
:1028E0000511012D01DB0E2D01DD3846F8BD032D4C
:1028F00024D1002000906A460421601CFFF753FE9B
:102900002044461C0098022803D3207800F00100E0
:1029100008B1FF20EAE77078317840EA0120801C96
:102920000099884201D9FF20E0E706A1B01CFDF71D
:1029300051FC08B10F2700E0032700E02F4638467E
:10294000D4E7000024637265710000000146FF2097
:102950008A78A2B9CA78142A11D10A7932B1012A27
:1029600005D0022A04D0802A06D103E000BF00BFB0
:10297000002003E0012001E0022000BF00BF7047FB
:10298000014601208A781AB9CA781E2A00D100208F
:10299000704700BFFEE7000010B5A0B004468021DC
:1029A0006846FDF700FC11A0008820808021684661
:1029B000FDF7F9FB0E4802780EA1684601F092FD82
:1029C00069462046FDF7FAFB80216846FDF7EBFBE0
:1029D0000DA1684601F086FD69462046FDF7EEFB35
:1029E0002046FDF713FCC0B220B010BD7B000000F4
:1029F000D80A002022636865636B5F64657669634B
:102A000065223A22256422007D00000010B5A0B0A6
:102A1000044680216846FDF7C6FB11A0008820808F
:102A200080216846FDF7BFFB01220EA1684601F038
:102A300059FD69462046FDF7C1FB80216846FDF738
:102A4000B2FB0BA1684601F04DFD69462046FDF73B
:102A5000B5FB2046FDF7DAFBC0B220B010BD000088
:102A60007B0000002274696D65223A2225642200F1
:102A70007D0000007047000070B5002100230F2288
:102A8000C47804B3154C246804F4E064C4F5E0642D
:102A9000210AC1F10403CA40447804FA03F184789E
:102AA0001440214309010E4C0678A155047804F026
:102AB0001F050124AC4005786D11AD0005F1E0253E
:102AC000C5F8004109E0047804F01F050124AC407A
:102AD000044D0678761145F8264070BD0CED00E0F7
:102AE00000E400E080E100E002490143024A116095
:102AF000704700000000FA050CED00E000B58DB055
:102B000000F07AF821A1684601F0ECFC6A46002149
:102B1000084600F049F921A223A1684601F0E2FC31
:102B20006A460221002000F03FF924A226A168464F
:102B300001F0D8FC6A460421002000F035F927A1F5
:102B4000684601F0CFFC6A460621002000F02CF90F
:102B5000FEF79EFC03E04FF4967002F0D5FA00F009
:102B600017FA0028F7D103E04FF4967002F0CCFA80
:102B700001211F4800F0F4FD0028F5D13C201D493B
:102B8000087000F039F80DB000BD00002DC7EBB49F
:102B9000F2BFAA57494649C8C8B5E300434D43436D
:102BA0002D4B5055440000002DC3FBB3C63A25738E
:102BB00020202020202020202000000070363735E3
:102BC00065706839000000002DC3DCC2EB3A257344
:102BD0002020202020202020200000002DC6B5C26B
:102BE000CA3A20322E342047487A202020000000A4
:102BF00000000020CC0A002010B5002000F025F8CD
:102C000010BD10B504461CB90021A62000F07EF9C5
:102C1000012C03D10021A72000F078F910BD10B5D8
:102C200004463CB90021C82000F070F90021A12021
:102C300000F06CF9012C07D10021C02000F066F9EA
:102C40000021A02000F062F910BD70B506460024F6
:102C500019E004F1B001C8B2002100F057F90021D9
:102C6000084600F053F90021102000F04FF900252C
:102C700005E00121304600F049F9681CC5B2822DFB
:102C8000F7DB601CC4B2082CE3DB70BD08B5012182
:102C9000082000F009FE4FF44C50ADF80000102061
:102CA0008DF8030003208DF8020069463D48FEF7C9
:102CB000F0FD4FF44C513B48FEF7C9FE0021AE2019
:102CC00000F024F90021084600F020F9002110202E
:102CD00000F01CF90021402000F018F900218120AB
:102CE00000F014F90021CF2000F010F90021A120FC
:102CF00000F00CF90021C82000F008F90021A620FE
:102D000000F004F90021A82000F000F900213F2084
:102D100000F0FCF80021D32000F0F8F8002108466C
:102D200000F0F4F80021D52000F0F0F80021802018
:102D300000F0ECF80021D92000F0E8F80021F120A3
:102D400000F0E4F80021DA2000F0E0F80021122081
:102D500000F0DCF80021DB2000F0D8F80021402052
:102D600000F0D4F80021202000F0D0F8002102204B
:102D700000F0CCF800218D2000F0C8F800211420CC
:102D800000F0C4F80021A42000F0C0F80021A62023
:102D900000F0BCF80021AF2000F0B8F8FFF72CFFDE
:102DA00008BD0000000C01402DE9F04707468846A9
:102DB0001646002584E03078A02845DD00253CE05B
:102DC000702F04DD002708F1020000F0FF083078C2
:102DD0003E4911F8151088422ED17078012101EB7F
:102DE00045013A4A515C884226D14146384600F0B6
:102DF00077F8002407E004EB4511354A505C0121C7
:102E000000F084F8641C102CF5D308F10100C1B265
:102E1000384600F065F8002408E004EB4511103155
:102E20002B4A505C012100F071F8641C102CF4D383
:102E300007F11000C7B204E06D1C26480068854207
:102E4000BED300BFB61C3BE07A2F04DD002708F19B
:102E5000020000F0FF0831781F48FDF7CDF98146E8
:102E6000B9F1000F2BD04146384600F039F8002464
:102E70000AE099F80010203904EB0111174A505C60
:102E8000012100F043F8641C082CF2D308F1010082
:102E9000C1B2384600F024F800240BE099F8001085
:102EA000203904EB011108310C4A505C012100F07B
:102EB0002DF8641C082CF1D307F10800C7B2761C6A
:102EC000307800287FF477AFBDE8F087EC09002068
:102ED0000C0600208C0A00202B0A00201C00002079
:102EE00070B504460D4605F1B001C8B2002100F0EE
:102EF0000DF8102141EA1410002100F007F804F049
:102F00000F00002100F002F870BD000070B504460B
:102F10000E462EB14FF480511C48FEF798FD04E098
:102F20004FF480511948FEF790FD4FF400511748B7
:102F3000FEF78BFD00251BE04FF480711348FEF770
:102F400084FD04F0800028B14FF400710F48FEF7B3
:102F50007EFD04E04FF400710C48FEF776FD4FF45F
:102F600080710A48FEF773FD6006040E681CC5B246
:102F7000082DE1DB4FF400510448FEF768FD4FF4E3
:102F800080510248FEF763FD70BD0000000C014057
:102F900030B58BB000200790089009900A90012569
:102FA00035A338A238A13AA001F08CFA07A8002175
:102FB00002910391CDE9041000912B022EA2019100
:102FC00030A131A0FEF790FF002843D1089A91B2BA
:102FD0000798FEF761FBFA20FEF732FA0446002C50
:102FE0002FD02046FFF778FC02282AD12046FFF791
:102FF00043FB062820D2DFE800F0030B0F13171B5A
:103000002BA001F05FFA002500202E49C87017E0C0
:103010002DA001F057FA13E032A001F053FA0FE0AF
:1030200039A001F04FFA0BE03FA001F04BFA07E0A6
:1030300046A001F047FA03E04FA001F043FA00BFB9
:1030400000BF2048C078401C1E49C87007A8FEF782
:10305000B3FD07E01B48C078401C1A49C8704DA05A
:1030600001F030FA1748C078022801DD00F038FE80
:1030700028460BB030BD0000313231353439353996
:10308000363500003700000036333435383900005B
:1030900050524F49443A20257309415549463A2038
:1030A00025730944455649443A25730D0A0000002A
:1030B000546970733A09C1ACBDD3B3C9B9A60D0A3E
:1030C00000000000642500205741524E3A09C1AC6F
:1030D000BDD3CAA7B0DCA3BAD0ADD2E9B4EDCEF36C
:1030E0000D0A00005741524E3A09C1ACBDD3CAA7E0
:1030F000B0DCA3BAB7C7B7A8B5C4636C69656E7412
:1031000069640D0A000000005741524E3A09C1ACF3
:10311000BDD3CAA7B0DCA3BAB7FECEF1C6F7CAA723
:10312000B0DC0D0A000000005741524E3A09C1AC14
:10313000BDD3CAA7B0DCA3BAD3C3BBA7C3FBBBF242
:10314000C3DCC2EBB4EDCEF30D0A00005741524E82
:103150003A09C1ACBDD3CAA7B0DCA3BAB7C7B7A8F8
:10316000C1B4BDD328B1C8C8E7746F6B656EB7C76B
:10317000B7A8290D0A0000004552523A09C1ACBD5A
:10318000D3CAA7B0DCA3BACEB4D6AAB4EDCEF30DA1
:103190000A0000005741524E3A094D5154545F50B5
:1031A00061636B6574436F6E6E656374204661691D
:1031B0006C65640D0A00000070B5C0B004464FF4A1
:1031C00080716846FCF7EFFF18A12046FDF747F82D
:1031D0004FF480716846FCF7E6FF15498868FDF7F3
:1031E00051FB05462A460B4612A1684601F07AF9C2
:1031F00069462046FCF7E2FF4FF480716846FCF711
:10320000D2FF0B49C868FDF73DFB05462A460B4631
:103210000BA1684601F066F969462046FCF7CEFF2F
:103220002046FCF7F3FFC0B240B070BD2C3B00005D
:103230006425002074656D702C252E32663B0000DD
:1032400068756D692C252E32663B000070B58CB018
:1032500006460020089009900A900B90079006906F
:10326000059004900024039000253046FFF734FBBE
:103270000446E01E0D2870D2DFE800F028707B9332
:10328000ADCDB5CDC1CDCDCD070004AB07AA06A904
:103290003046FFF7ABF90546BDB9BDF810306BA05D
:1032A000DDE9061201F00EF908AADDE90601FEF7D4
:1032B000D5FD50B96EA001F005F9099A91B20898B0
:1032C000FEF7EAF908A8FEF777FCA7E06E4803A925
:1032D00004AA07ABCDE90021029005AA06A9304651
:1032E000FFF7DAF90546002D36D1BDF81000009041
:1032F000BDF8142065A0DDE9061301F0E3F89DF8A0
:103300000C00012802D0022824D111E008A95E484F
:103310000088FFF70AF850B96BA001F0D3F8099ABA
:1033200091B20898FEF7B8F908A8FEF745FC12E03C
:1033300008A955480088FFF740F850B968A001F087
:10334000C1F8099A91B20898FEF7A6F908A8FEF705
:1033500033FC00E000BF00BF60E05CE03046FFF7F8
:103360007BFA10B964A001F0ADF83C206A490870FE
:1033700054E03046FFF78EFA90B968A001F0A2F849
:1033800008A90A20FFF73DF850B96AA001F09AF8A1
:10339000099A91B20898FEF77FF908A8FEF70CFC8D
:1033A0003CE0394801883046FFF783FA90B967A0BE
:1033B00001F088F808A90A20FEF7DBFF50B969A0E0
:1033C00001F080F8099A91B20898FEF765F908A80B
:1033D000FEF7F2FB22E03046FFF74DFA10B968A085
:1033E00001F070F81AE03046FFF7B0FA18B96AA099
:1033F00001F068F802E06FA001F064F80EE03046DA
:10340000FFF7BEFA18B972A001F05CF802E077A0ED
:1034100001F058F802E04FF0FF3500BF00BFFEF7A3
:1034200001F8681C08B90CB070BD079810B1079876
:1034300001F04CFF0F2C01D0032C05D1069801F0B0
:1034400065F8079801F062F800BFECE7636D646906
:10345000643A2025732C207265713A2025732C2044
:103460007265715F6C656E3A2025640D0A0000007C
:10347000546970733A0953656E6420436D645265F4
:1034800073700D0A00000000CE0A0020746F70698E
:10349000633A2025732C20746F7069635F6C656ECE
:1034A0003A2025642C207061796C6F61643A202584
:1034B000732C207061796C6F61645F6C656E3A206B
:1034C00025640D0A00000000546970733A095365C1
:1034D0006E64205075626C69736841636B0D0A00FD
:1034E000546970733A0953656E64205075626C6953
:1034F00073685265630D0A00546970733A094D513F
:103500005454205075626C6973682053656E642052
:103510004F4B0D0A00000000CC0A00205469707364
:103520003A09526576205075626C6973685265631A
:103530000D0A0000546970733A0953656E64205097
:1035400075626C69736852656C0D0A00546970731A
:103550003A09526576205075626C69736852656CE1
:103560000D0A0000546970733A0953656E64205067
:1035700075626C697368436F6D700D0A000000001E
:10358000546970733A09526576205075626C69739C
:1035900068436F6D700D0A00546970733A094D519C
:1035A000545420537562736372696265204F4B0DEA
:1035B0000A000000546970733A094D515454205365
:1035C0007562736372696265204572720D0A00004C
:1035D000546970733A094D51545420556E537562B5
:1035E000736372696265204F4B0D0A0054697073F2
:1035F0003A094D51545420556E5375627363726984
:103600006265204572720D0A0000000030B5C5B039
:103610000020419042904390449000254FF48071E7
:1036200001A8FCF7C0FD01A8FFF7C6FD0446002C69
:1036300020D041A80523002221B200900EA0FEF761
:1036400005FFA0B908E001A8415D429A501C4290D4
:1036500041988154681C85B2A542F4DB429A91B22C
:103660004198FEF719F841A8FEF7A6FA02E005A076
:1036700000F028FF45B030BD3132313534393539AD
:10368000363500005741524E3A094544505F4E6569
:1036900077427566666572204661696C65640D0ADD
:1036A0000000000030B5C9B00446002045904690A7
:1036B0004790489000254FF4807105A8FCF773FDF2
:1036C000012C06D0022C09D0032C0CD0042C14D1D0
:1036D0000EE005A8FEF796FA05460FE005A8FFF7ED
:1036E00095F905460AE005A8FFF756F9054605E0F5
:1036F00005A8FFF751F9054600E000BF00BFCDB1B6
:1037000045A801210022CDE900122B4605AACDE9EA
:10371000021009A10A20FEF737FD40B9469A91B27E
:103720004598FDF7B9FF45A8FEF746FA02E00AA062
:1037300000F0C8FE49B030BD2F62726F61646361F2
:1037400073742F6839736A663663726B78472F74A7
:1037500065737432000000005741524E0D0A00009C
:10376000F0B585B004460D46002600200190029079
:103770000390049006E054F826101FA000F0A2FE6B
:10378000701CC6B2AE42F6DB01A82B4622460221CF
:1037900000901420FEF788FE00282BD1029A91B2E7
:1037A0000198FDF779FF4FF4FA70FDF749FE0746DF
:1037B0003846FFF791F809280AD115A000F082FEDB
:1037C00001A8FEF7F9F900201849C87005B0F0BD4E
:1037D00017A000F077FE01A8FEF7EEF91348C078B5
:1037E000401CC0B21149C870022801DD00F078FA0F
:1037F0000120EBE70120E9E75375627363726962A8
:103800006520546F7069633A2025730D0A0000002B
:10381000546970733A094D5154542053756273635F
:1038200072696265204F4B0D0A000000642500207C
:10383000546970733A094D5154542053756273633F
:1038400072696265204572720D0A000070470000BF
:1038500001460020034A506820F44040084350606D
:10386000704700000010024029B1064A5269024325
:10387000044B5A6104E0034A52698243014B5A6186
:10388000704700000010024029B1064AD269024385
:10389000044BDA6104E0034AD2698243014BDA61E6
:1038A000704700000010024029B1064A92690243A5
:1038B000044B9A6104E0034A92698243014B9A6186
:1038C000704700000010024030B5002100220024A3
:1038D00000232D4D6D6805F00C0121B1042905D0A0
:1038E000082923D105E0294D056022E0274D056018
:1038F0001FE0254D6D6805F47012234D6D6805F4C9
:103900008034022505EB92421CB9214D55430560D8
:103910000BE01D4D6D6805F400351DB11C4D554380
:10392000056002E0194D5543056002E0174D056042
:1039300000BF00BF144D6D6805F0F0010909154D79
:103940006B5C0568DD4045600F4D6D6805F4E06116
:10395000090A104D6B5C4568DD4085600A4D6D6855
:1039600005F46051C90A0B4D6B5C4568DD40C560CC
:10397000054D6D6805F44041890B074D6B5CC568CA
:10398000B5FBF3F5056130BD0010024000127A006E
:1039900000093D009E0A0020AE0A002008B5012162
:1039A0000820FFF781FF0820ADF8000069460448B1
:1039B000FDF76FFF08210248FEF747F808BD000039
:1039C000000C014070B50025002424E000BF202138
:1039D0001348FEF731F80028F9D0282001F0BAFB8F
:1039E00020210F48FEF728F801280DD100BF202123
:1039F0000B48FEF721F80128F9D0C4F10701012096
:103A00008840C0B2054304E0C4F1070101208840AA
:103A10008543601CC4B2082CD8DB284670BD00006A
:103A2000000C014010B50446FDF718FC2021244885
:103A3000FEF70BF8122001F067FB20212048FEF76B
:103A400006F81E2001F086FBFDF7FAFB20211C483A
:103A5000FDF7F2FF80BB00BF20211948FDF7ECFF06
:103A60000028F9D000BF20211548FDF7E5FF012807
:103A7000F9D0FFF7A7FF2070FFF7A4FF6070FFF7F2
:103A8000A1FFA070FFF79EFFE070FFF79BFF207182
:103A9000FDF7E4FB20210A48FDF7D9FF2078617883
:103AA0000844A1780844E17808442179884201D18A
:103AB000012010BD0020FCE7FFE70020F9E700002F
:103AC000000C01402DE9FC4782461F48FFF7AAFF82
:103AD0001D49C878FCF7AAFE06461C4A1C4BFCF799
:103AE0002EFE04460D4618498878FCF79FFE804656
:103AF00022462B46FCF77CFDCDE90001FCF706FFD2
:103B0000CAF8080010494878FCF790FE06460F4AAC
:103B10000F4BFCF714FE04460D460B490878FCF7E2
:103B200085FE804622462B46FCF762FDCDE900016A
:103B3000FCF7ECFECAF80C0000F08AF8AAF81800AE
:103B40000120BDE8FC870000E00A00207B14AE479E
:103B5000E17A843F0246C8201080462050801C2015
:103B6000908001207047704710B500F001F810BD3B
:103B70000CB50020019000903348006840F480307C
:103B80003149086000BF3048006800F40030009000
:103B90000198401C0190009818B90198B0F5A06FE9
:103BA000F1D12948006800F4003010B101200090E4
:103BB00001E0002000900098012843D123480068CC
:103BC00040F01000214908600846006820F003001A
:103BD00008600846006840F0020008601A48406823
:103BE000194948600846406848600846406840F403
:103BF000806048600846406820F47C1048600846B1
:103C0000406840F4E81048600846006840F0807062
:103C1000086000BF0C48006800F000700028F9D070
:103C20000948406820F0030007494860084640689A
:103C300040F00200486000BF0348406800F00C00FC
:103C40000828F9D10CBD00000010024000200240FD
:103C5000034909880A2291FBF2F188B270470000FB
:103C6000900A002010B501234EF660220B490C4843
:103C700002F000F8012350220A490B4801F0FAFF34
:103C8000012340F6B8320949094801F0F3FF06481C
:103C900002F020F8064802F01DF810BD295B00086C
:103CA00008130020315B000818130020595C00083D
:103CB00028130020042808D14FF0E021096941F0C1
:103CC00004014FF0E022116107E04FF0E0210969A3
:103CD00021F004014FF0E0221161704770470000AD
:103CE000012080F3138800BF00BF0748006800F47C
:103CF000E06006490843001D03490860BFF34F8F89
:103D000000BF00BFFEE700000CED00E00000FA0578
:103D100010B51348006840F00100114908600846DA
:103D20004068104908400E494860084600680E493E
:103D300008400B4908600846006820F480200860AD
:103D40000846406820F4FE0048604FF41F00886079
:103D5000FFF70AFF4FF000600449086010BD000043
:103D6000001002400000FFF8FFFFF6FE08ED00E043
:103D700010B501210820FFF797FD01210846FFF744
:103D800093FD01210348FDF70FFE01210248FDF7D5
:103D90000BFE10BD000430000002300010B5012100
:103DA000134800F03DF808B312480068401C114960
:103DB000086001F0B7FF0F4800684FF47A71B0FB5C
:103DC000F1F201FB120068B900200A490860FDF712
:103DD0007DF909480078002804DD07480078401E76
:103DE000054908700121024800F00BF810BD0000E1
:103DF00000080040F00A0020CC0A0020CA430282DA
:103E00007047CA430282704721B1028842F0010222
:103E1000028004E002884FF6FE731A400280704769
:103E200030B50246002000230024158A05EA01036C
:103E3000958905EA010413B10CB1012000E00020CE
:103E400030BD1AB183890B43838102E083898B43A0
:103E500083817047002202881D4B98420ED01D4B73
:103E600098420BD0B0F1804F08D01B4B984205D040
:103E70001A4B984202D01A4B984204D14FF68F73D6
:103E80001A404B881A43174B984207D0164B98425A
:103E900004D04FF6FF431A40CB881A4302808B8828
:103EA00083850B8803850A4B98420BD0094B9842B7
:103EB00008D00E4B984205D00D4B984202D00D4BC6
:103EC000984201D10B7A0386012383827047000058
:103ED000002C014000340140000400400008004074
:103EE000000C004000100040001400400040014061
:103EF00000440140004801400146022901D1024826
:103F000000BF00BF704700000008004010B540F23D
:103F100025511D4800F0F2F810B31B4800F0AAF933
:103F2000C4B21A48008800F40040C8B91748008895
:103F300000F4804060B10A2C03D0002013490880AF
:103F400020E01248008840F400401049088019E041
:103F50000D2C06D10D48008840F480400B490880A4
:103F600010E00A480088C0F30D0009490C540748C6
:103F70000088401C0549088008460088C72801DDE4
:103F80000020088010BD0000003801409C0A00207D
:103F90003813002010B540F225510E4800F0AEF85D
:103FA000B0B10D480088FF2802D900200A490880D6
:103FB0000848001D0088C1B2074802880088401CDC
:103FC000054B1880054881542021024800F074F800
:103FD00010BD000000440040B20A0020641C002014
:103FE00010B586B0044601210420FFF75DFC0121D5
:103FF0004804FFF749FC18208DF817000420ADF89D
:10400000140003208DF8160005A91D48FDF741FC9A
:1040100004208DF817000820ADF8140003208DF857
:10402000160005A91648FDF734FC01940020ADF8F0
:1040300010000C20ADF80E000020ADF80C00ADF81B
:104040000A00ADF8080001A90E4800F0A7F8012108
:104050000C4800F03AF8012240F22551094800F0DE
:1040600077F826208DF8000001208DF803008DF8E8
:1040700001008DF802006846FEF7FEFC06B010BD98
:10408000000801400044004070B504460D4600267B
:104090000DE014F8011B074800F0F1F800BF4021C3
:1040A000044800F01EF80028F9D0701C86B2AE4219
:1040B000EFDB70BD0044004001F40072B2F5007FF8
:1040C00000D100BFCA430280704721B1828942F407
:1040D0000052828104E082894DF6FF731A4082818A
:1040E000704702460020B1F5007F00D100BF138861
:1040F0000B400BB1012000E00020704770B5024674
:10410000002400230025002040F66A16B14200D1A9
:1041100000BFC1F3421501F01F03012606FA03F3A5
:10412000012D02D19689334006E0022D02D1168A74
:10413000334001E0968A33400C12012606FA04F45B
:104140001688344013B10CB1012000E0002070BD8E
:10415000F0B50346002400260025002040F66A172B
:10416000B94200D100BF1846C1F3421401F01F0646
:10417000012707FA06F5012C01D10C3004E0022CCE
:1041800001D1103000E014301AB107682F430760E6
:1041900002E00768AF430760F0BD00002DE9F0477B
:1041A00086B005460E460024A24600BFA146002761
:1041B000B08900B100BF2F462C8A4CF6FF70044036
:1041C000F08804432C82AC894EF6F3100440B0888A
:1041D00031890843718908430443AC81AC8A4FF6A6
:1041E000FF400440B0890443AC8201A8FFF76CFB98
:1041F0001F48874202D1DDF810A001E0DDF80CA0D5
:10420000A88900F4004040B10AEBCA0000EB0A1094
:1042100031684900B0FBF1F807E00AEBCA0000EB97
:104220000A1031688900B0FBF1F86420B8FBF0F0A7
:1042300004012009642101FB1089A88900F40040D1
:1042400040B1322000EBC900B0FBF1F000F00700F4
:10425000044308E0322000EB09106421B0FBF1F0C8
:1042600000F00F0004432C8106B0BDE8F087000089
:104270000038014001468888C0F308007047C1F348
:10428000080282807047000010B52348007C30BBD4
:1042900022498888FCF7C5FA04461F4881682046F1
:1042A000FCF750FB15D31D494888FCF7BAFA0446C1
:1042B0001948C1682046FCF745FB0AD31648008B15
:1042C00016490988884204DC10211548FDF7B4FB23
:1042D00030B914480068C0431349C1F88C0102E0AA
:1042E0000020104908600C48007890B10A48007816
:1042F000012802D0022808D103E00120FFF7D2F9FB
:1043000003E00220FFF7CEF900BF00BF0020024902
:104310000870012010BD000064250020D00A002094
:10432000000801408C8121420080214230B58DB0CF
:1043300010212348FDF780FB38B922A1684600F020
:10434000D1F801202349487406E023A1684600F013
:10435000C9F800201F4948746A4600210846FEF744
:1043600023FD1C48028B20A1684600F0BBF86A467A
:1043700002210020FEF718FD16498868FCF782FA32
:10438000044622460B461CA1684600F0ABF86A467C
:1043900004210020FEF708FD0E49C868FCF772FAF8
:1043A000044622460B4619A1684600F09BF86A466F
:1043B00006210020FEF7F8FC01200DB030BD000002
:1043C00000080140BCE0B2E2B5BDC3F7BBF03A2043
:1043D000CAC7200064250020BCE0B2E2B5BDC3F727
:1043E000BBF03A20B7F12000D1CCCEEDC5A8B6C8BD
:1043F0003A20256420202000CEC2B6C83A20252EBF
:10440000316620202020202000000000CAAAB6C863
:104410003A20252E31662020202020200000000098
:1044200000BFFEE710B586B00446012144F2040047
:10443000FFF73AFA4FF40070ADF8140003208DF83E
:10444000160018208DF8170005A91C48FDF721FA61
:104450004FF48060ADF8140004208DF8170005A912
:104460001648FDF716FA25208DF8000003208DF878
:1044700001008DF8020001208DF803006846FEF768
:10448000FBFA01940020ADF80800ADF80A00ADF881
:104490000C00ADF810000C20ADF80E0001A9084882
:1044A000FFF77CFE012240F225510548FFF750FE40
:1044B00001210348FFF709FE06B010BD00080140C6
:1044C000003801400FB4054B10B503A9044A029807
:1044D00000F04CF910BC5DF814FB0000A15100087D
:1044E000980A00200FB4084B10B504A902AA03983B
:1044F00000F03CF9044602A9002000F0CEFC204662
:1045000010BC5DF814FB00009B4E000830B528B1CC
:10451000144C031F002021680A4605E0084630BD00
:104520009A4203D810465268002AF9D1002800D0D8
:1045300041680BD00468A3EB0005A54204D11B68B9
:104540001C440346046002E0436000E023603AB18B
:104550001C68D51AA54203D115682C441C6052680A
:104560005A6030BD000B00202DE9F04782460F4C09
:1045700010480D4E0E4F001B4FF0000820F00705AD
:104580004FF0010900221146504600F043FE00287A
:1045900002D1306810B10020BDE8F0873C60C4E96A
:1045A0000058C6F80090EDE7040B00208425002099
:1045B000000B00208031002002E008C8121F08C153
:1045C000002AFAD170477047002001E001C1121F94
:1045D000002AFBD1704700002DE9FF5F82B0002167
:1045E000DDE90430020DDDF840B0034318D044F695
:1045F0001050A2F2FF3242431514119801281FD027
:10460000A5EB0B00401C5FEA000A4FF000064E4F7E
:10461000DFF83891B046504615D5CAF1000413E0D2
:10462000119801244AA3012801D16FEA0B010298D5
:10463000119AC0E90031C0E9024206B0BDE8F09F1E
:10464000CBF10000DFE704460021404A491842EB65
:104650000450CDE9001012E0E00707D032463B4697
:1046600040464946FCF76BF88046894632463B4651
:1046700010461946FCF763F806460F466410002CF6
:10468000EAD1DDE90401DDE90023BAF1000F06DA21
:10469000FCF755F842464B46FCF751F805E0FCF7AD
:1046A000D5FA42464B46FCF7D1FA04460E460022A4
:1046B000284BFCF713F903D84FF0FF30014607E011
:1046C0000022254B20463146FBF792FFFCF739FBD1
:1046D000102409E0002C0ADB0A220023FCF752F91F
:1046E000039B30321A55641E50EA0102F2D1641C59
:1046F000039AC4F111031444119A012A03D0012230
:1047000008430DD10AE0084304D000204FF0110BFC
:10471000119072E7A3EB0B056D1E0DE05B4504DD08
:104720004FF0000205F1010504E003DA4FF000024A
:10473000A5F10105002AECD002981199C0E90231D7
:10474000C0E9004579E70000000014400000F03F98
:10475000300000000000F0430000E03F30380A283D
:1047600001D2012070470020704700002DE9FF4F63
:1047700095B09B468946064600250FE2252877D14D
:1047800000242746F84A0121059400E0044316F866
:10479000013F203B01FA03F01042F7D130782A287C
:1047A00011D06FF02F033078A0F13002092A16D80B
:1047B000059A44F0020402EB820203EB4202104429
:1047C000761C0590EFE759F8042B0592002A03DACE
:1047D000504244F40054059044F00204761C3078B2
:1047E0002E2816D116F8010F44F004042A280DD003
:1047F0006FF02F023078A0F13003092B09D807EBB6
:10480000870302EB4303C718761CF3E759F8047BD0
:10481000761C30786C280FD006DC4C2817D068281E
:104820000DD06A2814D104E0742810D07A280FD152
:104830000DE044F400140AE044F4801401E044F470
:1048400040147278824202D104F58014761C761CE2
:10485000307866280BD013DC582877D009DC002884
:1048600075D04528F6D04628F4D047281AD19DE1C6
:1048700018E0632835D0642879D0652812D195E1F5
:10488000702873D008DC6728F1D069286FD06E28B3
:104890000DD06F2806D1B5E073282CD0752875D0BF
:1048A000782874D05A46179990476D1C75E1C4F367
:1048B0000250022809D003280DD0D9F8001004288E
:1048C0000DD00D6009F1040967E1D9F80010EA176D
:1048D000C1E90052F6E7D9F800100D80F2E70D703B
:1048E000F0E719F8041B8DF8001000208DF8010086
:1048F000EA46012003E059F804AB4FF0FF306107AE
:104900004FF0000102D40DE008F101018846B942E0
:104910000FDA8045F8DB1AF808100029F4D108E016
:1049200008F1010188468142FADB1AF808100029D3
:10493000F6D105985B46A0EB080721463846179A42
:1049400000F094FA284400EB080507E04DE029E167
:104950000DE01AF8010B5A4617999047B8F1010873
:10496000F7D25B4621463846179A13E142E00A2205
:104970000092C4F302524FF0000A022A08D059F8FC
:1049800004CB032A4FEAEC710AD00DE029E02AE0BB
:1049900009F1070121F00702F2E802C1914609E09E
:1049A0000FFA8CFC4FEAEC71042A03D14FFA8CFC0D
:1049B0004FEAEC71002907DA0A460021DCF1000C0D
:1049C00061EB02012D2202E0220504D52B228DF895
:1049D0000420012203E0E20701D02022F7E79046FD
:1049E00059E00A2102E010220DE010214FF0000AE8
:1049F00000910BE010224FF0000A44F00404082755
:104A0000009203E008224FF0000A0092C4F3025221
:104A1000022A05D059F804CB0021032A08D009E066
:104A200009F1070121F00702F2E802C1914605E011
:104A30001FFA8CFC042A01D10CF0FF0C4FF0000887
:104A4000220728D5702806D0009B83F0100353EA74
:104A50000A0305D00EE040228DF80420012208E070
:104A60005CEA010206D030228DF804208DF80500A2
:104A700002229046009B83F0080353EA0A030AD1FE
:104A80005CEA010201D1620705D530228DF80420CD
:104A90004FF001087F1E582804D034A003900EA8C0
:104AA00002900DE036A0F9E753466046009AFBF706
:104AB00069FF84460398825C0298401E029002704F
:104AC0005CEA0100F0D1029806A9081A00F1200A58
:104AD000600702D524F4803400E00127574502DD49
:104AE000A7EB0A0000E0002000EB0A010090059807
:104AF0004144401A0590E00306D45B462146179ACC
:104B0000059800F0B3F90544002706E001A85A46CD
:104B1000C05D179990476D1C7F1C4745F6DBE0038D
:104B20000CD55B462146179A059800F09FF905447D
:104B300004E030205A46179990476D1C0099481E92
:104B400000900029F5DC08E0029802995A460078A6
:104B5000491C0291179990476D1CBAF10001AAF106
:104B6000010AF1DC65E1000009280100303132332F
:104B70003435363738396162636465660000000099
:104B80003031323334353637383941424344454683
:104B90000000000000F058F90544761C3078002829
:104BA0007FF4ECAD19B02846BDE8F08F620700D461
:104BB000062709F1070222F0070CFCE80223E14670
:104BC00003F000485FEA080C02D00FF2702C0DE0F1
:104BD0005FEA045C02D50FF2682C07E05FEAC47C50
:104BE00002D00FF2602C01E0AFF2700C4FF0FF38F2
:104BF00023F00043CDF850C065280CD006DC4528D2
:104C000009D046281DD047283DD13DE0662818D060
:104C100067287ED138E00021112F01DB112000E050
:104C2000781CCDE9000106A90EA8FFF7D5FCDDE947
:104C30000F010E9A03910021009207F1010A0491DD
:104C40004DE04FF000400097CDE9011006A90EA8F5
:104C5000FFF7C2FCDDE90F0203920E9B11990022BF
:104C6000DDF80CA00093049211B9791C00EB010A45
:104C7000B7EB0A0004D4C0F1FF3007F1010A049039
:104C8000AAEB0700019044E0012F00DA0127002180
:104C9000112F01DD112000E03846CDE9000106A901
:104CA0000EA8FFF799FCDDE90F010E9A0391002190
:104CB00004910092BA4621070CD40399514500DAB9
:104CC0008A46BAF1010F05DD009AAAF10101515C93
:104CD000302908D0B84202DA10F1040F06DA0121B7
:104CE000CDE9011015E0AAF10101E9E7002805DC92
:104CF000049901440491AAEB000102E0411C5145D2
:104D000000DD8A460499401A401C01904FF0004093
:104D10000290200704D40198504501DBCDF80480AF
:104D200000208DF84F0002980DF14F07B0F1004FB1
:104D300025D02B200E9002984FF0020800280CDAA4
:104D4000404202902D200E9007E00A210298FBF7C6
:104D500003FE3031029007F8011DB8F10001A8F1FF
:104D60000108F2DC02980028EFD1791E0E98087035
:104D7000307800F0200040F0450007F8020D12A83E
:104D8000C01B00F107081498007800B1012000EB67
:104D90000A01019801EBE07105984144401A401E58
:104DA0000590E00306D45B462146179A059800F06B
:104DB0005DF805441498007818B15A461799904741
:104DC0006D1CE00324D55B462146179A059800F038
:104DD0004DF805441CE00498002807DBDDE90301D9
:104DE000884203DD0098405C179901E01799302054
:104DF0005A469047049805F10105401C049001981B
:104E0000401E019004D12E205A46179990476D1CE0
:104E1000BAF10001AAF1010ADDDC05E017F8010B87
:104E20005A46179990476D1CB8F10001A8F1010886
:104E3000F4DC5B462146179A0598ABE62D0000008E
:104E40002B000000200000002DE9F0410446002561
:104E50001E461746880404D405E039462020B04792
:104E60006D1C641EF9D52846BDE8F0812DE9F0419E
:104E7000044600251E469046C80301D5302700E0B1
:104E80002027880404D505E041463846B0476D1C0C
:104E9000641EF9D52846BDE8F0810A68531C0B60F2
:104EA00010707047014609B1086808B900207047C2
:104EB00019B1D1E90120904201D30846F7E702E099
:104EC0008868401C886041B1D1E90120904204D239
:104ED0008A680868805C2028F2DDD1E901209042D0
:104EE00002D18868401E88600846E0E770B5044635
:104EF000002522E02568A08900F4807020B9A06810
:104F000010B1A068FFF7F2FFA08900F4807028B903
:104F1000206918B10A4A206951688847A08900F4BD
:104F2000007028B9206A18B1054A206A516888477C
:104F300003484168204688472C46002CDAD170BDD2
:104F4000C00A002070B504460D46002229462046BE
:104F500000F036F970BD70B50446282021688847F6
:104F600005461DB128212846FBF71DF9284670BDCE
:104F700010B5044600221146204600F06BF810BD23
:104F80002DE9F0478AB004460E46154698461C2186
:104F900003A8FBF708F9002700202C4908604860A7
:104FA00004B106B932E00394049600200590284A23
:104FB00007CA07AB07C32648FFF7CDFF074607B967
:104FC00024E003A800F084FD8246FFF76BFF8146D2
:104FD0004946384600F0A8FC00B917E0B8F1000FC8
:104FE0000BD003A8FFF75EFFDDE90410884203D26F
:104FF00005990398405C00B108E01DB1059903983C
:105000000844286038460AB0BDE8F08717B1384632
:10501000FFF76CFFC4B1019400200290DDE9041099
:10502000884202D20598029004E0049810B10498D6
:10503000401E02901DB1DDE90101084428600348CB
:10504000DDE9011206C000BF0020DCE7B80A00203D
:10505000C00A00202DE9F04104460D46164614B959
:105060000020BDE8F0812046FBF7D0F8471C33460E
:105070002A4639462046FFF783FFF2E770B504461B
:105080000D4604B10DB9012070BDAC4201D1002024
:10509000FAE705E0207808B90020F5E7641C6D1CEC
:1050A0002078FBF761F806462878FBF75DF8864222
:1050B000F0D02078FBF758F806462878FBF754F82C
:1050C000301AE1E710B56FF00400FEF7F3FD0A486F
:1050D00000680A49B0FBF1F00949087008460078F9
:1050E00000EB4001C1EBC0104FF6FF7101EAC000B8
:1050F0000449088010BD00000400002000127A005E
:10510000920A0020940A00200146114A12884A435C
:105110004FF0E0235A6100229A611A46126942F068
:1051200001021A6100BF4FF0E022106900F0010295
:105130001AB100F48032002AF5D04FF0E022126953
:1051400022F001024FF0E0231A6100229A617047B9
:10515000940A00200146114A12784A434FF0E02396
:105160005A6100229A611A46126942F001021A61DC
:1051700000BF4FF0E022106900F001021AB100F404
:105180008032002AF5D04FF0E022126922F00102AD
:105190004FF0E0231A6100229A617047920A0020C2
:1051A00000BF054A128802F04002002AF9D0C2B2BC
:1051B000014B1B1D1A807047003801402E2070479C
:1051C0002DE9F04105460E461746002405B116B9F3
:1051D0000020BDE8F081AC685FB100E024688CB1CC
:1051E000206A78B13046216AFBF717F80028F5D11C
:1051F00008E000E024682CB13046216AFFF73EFF4A
:105200000028F7D10CB1206A08B90020E1E7204658
:10521000DFE700002DE9F0410B3020F00706104DCC
:1052200019E02068B04215D3B0420AD9871B201D6F
:10523000D4F80480FAF79EFFA019C0E9007828602E
:1052400004E060682860201DFAF794FF201D2660A6
:10525000BDE8F081251D2C68002CE2D10020F7E785
:10526000000B00200024FEF7FDFCFCF7F5FB0120FD
:10527000124908606420FFF747FF00201049C1F879
:105280008C01FDF73BFC01210E48FEF7BDFD13E04C
:1052900000F000FD0020FCF7D3F8044614B12046CE
:1052A000FDF7D4FF084800681921B0FBF1F201FBBB
:1052B000120008B9FBF70EFFEAE700008C812142DB
:1052C0000080214200080040F00A00202DE9F04152
:1052D0000646002400273046FFF74AFE04462CB954
:1052E00027A0FFF7EFF80020BDE8F08128A12046B5
:1052F000FFF728FE057D27A12046FFF723FE07467E
:10530000012D06D0022D0ED0032D25D0042D2FD136
:105310002DE022A13846FFF715FE007D21490874D3
:105320000120087025E020A13846FFF70BFE808A97
:105330001F4988801FA13846FFF704FE808A1C4958
:1053400048801EA13846FFF7FDFD808A1849088075
:105350000120144908700CE01AA13846FFF7F2FD4D
:1053600040691A49086001200E49087001E000E018
:1053700000BF00BF2046FFF7B9FD0120B4E70000E1
:105380007061727365206661696C2E0A000000000E
:10539000636D64006461746100000000666C6167A5
:1053A000650000006425002074656D705F76000064
:1053B000D00A002068756D695F760000736F6D67B5
:1053C0005F76000062656570000000008C812142FC
:1053D0002DE9F04180460C4600250027E068B0F535
:1053E0007A7F02D30020BDE8F081E068401CE060D5
:1053F000A1682068405C5B2800D05FE0A068401C8A
:10540000A0602046FFF74EFD4CB1D4E90110884260
:1054100005D2A1682068405C5D2800D13FE01CB146
:10542000D4E90110884203D3A068401EA06045E083
:10543000A068401EA06000BF04F11000FFF78BFDC4
:10544000064606B93AE015B93546374602E03E60F1
:1054500077603746A068401CA0602046FFF722FD19
:105460002146384600F060FA00B927E02046FFF7F1
:1054700019FD44B1D4E90110884204D2A168206822
:10548000405C2C28D8D044B1D4E90110884204D221
:10549000A1682068405C5D2800D00FE000BFE06894
:1054A000401EE06005B16F602020C8F80C00C8F80D
:1054B0000850A068401CA060012094E715B1284660
:1054C000FFF714FD00208EE702460023002100BFF5
:1054D00023E0505C302806DB505C392803DC505C4C
:1054E0003038034415E0505C412806DB505C462808
:1054F00003DC505C373803440BE0505C612806DB6A
:10550000505C662803DC505C5738034401E00020FF
:105510007047032900D21B01491C0429D9D318461E
:10552000F6E700002DE9F04391B080460C4600BF3D
:1055300000201090FFF742FE814600250CB1206844
:1055400018B9002011B0BDE8F08300253CE0A16847
:1055500020680844405D342820D00ADCA0F12B00EC
:1055600009282ED2DFE800F0202D212A2D16171849
:105570001900382816D006DC352810D036280FD070
:1055800037281ED10DE039280DD045280FD06528C9
:1055900017D10BE000BF00BF00BF00BF00BF00BFBE
:1055A00000BF00BF00BF00BF00BF00BF00BFA168B9
:1055B00020680844405D0DF8050003E00DF80590F3
:1055C00000E00AE000BF6D1C3F2D05D224B1A068A9
:1055D000284461688842BAD300BF00200DF8050056
:1055E00010A9684600F092FA06460F4668461099E0
:1055F000884201D10020A5E7C8E90667144A154B87
:1056000030463946FBF76AF904D86FF00040C8F815
:10561000140011E00022104B30463946FBF746F9E2
:1056200004D84FF00040C8F8140005E03046394671
:10563000FBF709F9C8F814000820C8F80C00A068A6
:105640006A461099891A0844A06001207AE7000090
:105650000000C0FFFFFFDF410000E0C12DE9F04185
:1056600080460C4600260025E068B0F57A7F02D31C
:105670000020BDE8F081E068401CE06044B1D4E95E
:105680000110884204D2A1682068405C7B2800D0C9
:105690007DE0A068401CA0602046FFF703FC4CB1F1
:1056A000D4E90110884205D2A1682068405C7D28B9
:1056B00000D15DE01CB1D4E90110884203D3A06899
:1056C000401EA06063E0A068401EA06000BF04F11F
:1056D0001000FFF740FC074607B958E016B93E46F0
:1056E0003D4602E02F607D603D46A068401CA06002
:1056F0002046FFF7D7FB2146284600F04EF800B9B8
:1057000045E02046FFF7CEFB28692862002028618B
:1057100044B1D4E90110884204D2A1682068405CF9
:105720003A2800D033E0A068401CA0602046FFF774
:10573000B9FB2146284600F0F7F800B927E02046DB
:10574000FFF7B0FB44B1D4E90110884204D2A1684C
:105750002068405C2C28BAD044B1D4E901108842BA
:1057600004D2A1682068405C7D2800D00FE000BF13
:10577000E068401EE06006B175604020C8F80C008B
:10578000C8F80860A068401CA060012071E716B14D
:105790003046FFF7ABFB00206BE72DE9F84F804662
:1057A0000C46A16820680844461CA168206808448B
:1057B000451C002000900027A1682068405C22283A
:1057C00000D0A6E04FF0000AD1460DE028785C2812
:1057D00009D1681C2168401A6168884200D398E0AA
:1057E00009F101096D1C6D1C2068281A6168884246
:1057F00002D228782228E9D12068281A61688842D4
:1058000002D22878222800D083E0A16820680844CA
:10581000281AA0EB090A0AF1010021698847074606
:1058200007B976E0009761E030785C2807D016F879
:10583000010B009908700098401C009056E04FF052
:105840000209A81B012800DA63E07078662819D0E5
:1058500008DC222832D02F2832D05C282FD06228B2
:1058600040D108E06E2814D0722819D074281ED0B8
:10587000752837D12BE00820009908700098401C4B
:10588000009030E00C20009908700098401C0090B7
:1058900029E00A20009908700098401C009022E03E
:1058A0000D20009908700098401C00901BE0092012
:1058B000009908700098401C009014E000BF00BFE1
:1058C0007078009908700098401C00900BE06A46C0
:1058D0002946304600F02EFA8146B9F1000F00D17A
:1058E00017E000E015E000BF4E4400BFAE429BD37E
:1058F0000020009908701020C8F80C00C8F810703B
:105900002068281AA060A068401CA0600120BDE8A3
:10591000F88F17B138466169884716B12068301A88
:10592000A0600020F3E7000070B505460C460CB1FE
:10593000206808B9002070BD9CB1A068001D616896
:1059400088420ED8A2682168881804223FA1FAF77D
:105950008FFC30B90420E860A068001DA060012021
:10596000E9E79CB1A068401D616888420ED8A26832
:1059700021688818052237A1FAF77AFC30B901208E
:10598000E860A068401DA0600120D4E7ACB1A06829
:10599000001D6168884210D8A26821688818042216
:1059A0002EA1FAF765FC40B90220E8600120686189
:1059B000A068001DA0600120BDE76CB1D4E9011012
:1059C000884209D2A1682068405C222804D121467F
:1059D0002846FFF7E2FEAEE7BCB1D4E901108842E9
:1059E00013D2A1682068405C2D2809D0A1682068E6
:1059F000405C302809DBA1682068405C392804DC61
:105A000021462846FFF78EFD95E76CB1D4E90110D9
:105A1000884209D2A1682068405C5B2804D12146F5
:105A20002846FFF7D5FC86E76CB1D4E9011088421F
:105A300009D2A1682068405C7B2804D12146284611
:105A4000FFF70CFE77E7002075E700006E756C6CC1
:105A50000000000066616C7365000000747275657B
:105A6000000000002DE9F04704008A4616D054F8E3
:105A7000047CD4F800903E1F564500D95646204677
:105A8000FEF744FD05468846324621465046FFF75C
:105A9000C1FB40B1C0F80090BDE8F087BDE8F04719
:105AA0000846FEF761BD44E9017955B129686A18D5
:105AB000211F8A4202D9611B091F2960C5F8048091
:105AC000EAE7024AC2F80080E6E70000000B002087
:105AD00010B504461CB1206808B1A06808B10020C8
